{
  "contractName": "Faucet",
  "abi": [
    {
      "inputs": [
        {
          "internalType": "uint256",
          "name": "",
          "type": "uint256"
        }
      ],
      "name": "funders",
      "outputs": [
        {
          "internalType": "address",
          "name": "",
          "type": "address"
        }
      ],
      "stateMutability": "view",
      "type": "function",
      "constant": true
    },
    {
      "inputs": [],
      "name": "numOfFunder",
      "outputs": [
        {
          "internalType": "uint256",
          "name": "",
          "type": "uint256"
        }
      ],
      "stateMutability": "view",
      "type": "function",
      "constant": true
    },
    {
      "stateMutability": "payable",
      "type": "receive",
      "payable": true
    },
    {
      "inputs": [],
      "name": "addFunds",
      "outputs": [],
      "stateMutability": "payable",
      "type": "function",
      "payable": true
    },
    {
      "inputs": [
        {
          "internalType": "uint256",
          "name": "index",
          "type": "uint256"
        }
      ],
      "name": "getFunderAtIndex",
      "outputs": [
        {
          "internalType": "address",
          "name": "",
          "type": "address"
        }
      ],
      "stateMutability": "view",
      "type": "function",
      "constant": true
    }
  ],
  "bytecode": "0x608060405234801561001057600080fd5b50610376806100206000396000f3fe6080604052600436106100435760003560e01c80635631d9621461004f578063a26759cb1461007a578063c218deca14610084578063dc0d3dff146100c15761004a565b3661004a57005b600080fd5b34801561005b57600080fd5b506100646100fe565b604051610071919061025a565b60405180910390f35b610082610104565b005b34801561009057600080fd5b506100ab60048036038101906100a691906101f8565b610173565b6040516100b8919061023f565b60405180910390f35b3480156100cd57600080fd5b506100e860048036038101906100e391906101f8565b6101b0565b6040516100f5919061023f565b60405180910390f35b60005481565b6000806000815480929190610118906102b1565b919050559050336001600083815260200190815260200160002060006101000a81548173ffffffffffffffffffffffffffffffffffffffff021916908373ffffffffffffffffffffffffffffffffffffffff16021790555050565b60006001600083815260200190815260200160002060009054906101000a900473ffffffffffffffffffffffffffffffffffffffff169050919050565b60016020528060005260406000206000915054906101000a900473ffffffffffffffffffffffffffffffffffffffff1681565b6000813590506101f281610329565b92915050565b60006020828403121561020a57600080fd5b6000610218848285016101e3565b91505092915050565b61022a81610275565b82525050565b610239816102a7565b82525050565b60006020820190506102546000830184610221565b92915050565b600060208201905061026f6000830184610230565b92915050565b600061028082610287565b9050919050565b600073ffffffffffffffffffffffffffffffffffffffff82169050919050565b6000819050919050565b60006102bc826102a7565b91507fffffffffffffffffffffffffffffffffffffffffffffffffffffffffffffffff8214156102ef576102ee6102fa565b5b600182019050919050565b7f4e487b7100000000000000000000000000000000000000000000000000000000600052601160045260246000fd5b610332816102a7565b811461033d57600080fd5b5056fea2646970667358221220a060c0160177d2e498774bc5d893e9c2544378f81f04dd5bd542944955bb6f4f64736f6c63430008040033",
  "immutableReferences": {},
  "source": " // SPDX-License-Identifier: MIT\n pragma solidity >=0.4.22 <0.9.0;\n\n contract Faucet {\n     // storage variables\n    //  uint public funds = 1000;\n\n    // special function\n    // called when make tx that does not specify function\n    // external are parts of contract interface\n    // can be called by other contracts and transactions\n\n    // create address\n    // address[] public funders;\n    uint public numOfFunder;\n\n    mapping (uint => address) public funders;\n\n\n    // payable can provide value\n    receive() external payable {\n    }\n\n    function addFunds () external payable {\n        // funders.push(msg.sender);\n        uint index = numOfFunder++;\n        funders[index] = msg.sender;\n    }\n\n    // function getAllFunders() external view returns(address[] memory){\n    //     return funders;\n    // }\n\n    function getFunderAtIndex (uint index) external view returns(address){\n        return funders[index];\n    }\n}\n\n // Nonce a hash when combined with minHash proofs that\n // block has gine through proof of work(POW)\n // 8 bytes 64 bits",
  "sourcePath": "/Users/dyada/Desktop/blockchain/faucet/contracts/FaucetContract.sol",
  "compiler": {
    "name": "solc",
    "version": "0.8.4+commit.c7e474f2.Emscripten.clang"
  },
  "schemaVersion": "3.4.13",
  "updatedAt": "2023-05-17T09:12:55.025Z",
  "networkType": "ethereum",
  "devdoc": {
    "kind": "dev",
    "methods": {},
    "version": 1
  },
  "userdoc": {
    "kind": "user",
    "methods": {},
    "version": 1
  }
}