{
  "contractName": "Faucet",
  "abi": [
    {
      "inputs": [],
      "name": "numOfFunders",
      "outputs": [
        {
          "internalType": "uint256",
          "name": "",
          "type": "uint256"
        }
      ],
      "stateMutability": "view",
      "type": "function",
      "constant": true
    },
    {
      "inputs": [],
      "name": "owner",
      "outputs": [
        {
          "internalType": "address",
          "name": "",
          "type": "address"
        }
      ],
      "stateMutability": "view",
      "type": "function",
      "constant": true
    },
    {
      "stateMutability": "payable",
      "type": "receive",
      "payable": true
    },
    {
      "inputs": [],
      "name": "addFunds",
      "outputs": [],
      "stateMutability": "payable",
      "type": "function",
      "payable": true
    },
    {
      "inputs": [
        {
          "internalType": "uint256",
          "name": "withdrawAmount",
          "type": "uint256"
        }
      ],
      "name": "withdraw",
      "outputs": [],
      "stateMutability": "nonpayable",
      "type": "function"
    },
    {
      "inputs": [
        {
          "internalType": "uint8",
          "name": "index",
          "type": "uint8"
        }
      ],
      "name": "getFunderAtIndex",
      "outputs": [
        {
          "internalType": "address",
          "name": "",
          "type": "address"
        }
      ],
      "stateMutability": "view",
      "type": "function",
      "constant": true
    },
    {
      "inputs": [],
      "name": "getAllFunders",
      "outputs": [
        {
          "internalType": "address[]",
          "name": "",
          "type": "address[]"
        }
      ],
      "stateMutability": "view",
      "type": "function",
      "constant": true
    },
    {
      "inputs": [
        {
          "internalType": "address",
          "name": "newOwner",
          "type": "address"
        }
      ],
      "name": "transferOwnership",
      "outputs": [],
      "stateMutability": "nonpayable",
      "type": "function"
    },
    {
      "inputs": [],
      "name": "test",
      "outputs": [],
      "stateMutability": "nonpayable",
      "type": "function"
    }
  ],
  "bytecode": "0x608060405234801561001057600080fd5b50336000806101000a81548173ffffffffffffffffffffffffffffffffffffffff021916908373ffffffffffffffffffffffffffffffffffffffff160217905550610ae3806100606000396000f3fe60806040526004361061007f5760003560e01c8063a26759cb1161004e578063a26759cb14610147578063af7f2c9b14610151578063f2fde38b1461017c578063f8a8fd6d146101a557610086565b80630a93cf331461008b5780632e1a7d4d146100c85780636fbbb55d146100f15780638da5cb5b1461011c57610086565b3661008657005b600080fd5b34801561009757600080fd5b506100b260048036038101906100ad9190610715565b6101bc565b6040516100bf9190610827565b60405180910390f35b3480156100d457600080fd5b506100ef60048036038101906100ea91906106ec565b6101fc565b005b3480156100fd57600080fd5b50610106610293565b6040516101139190610842565b60405180910390f35b34801561012857600080fd5b506101316103d9565b60405161013e9190610827565b60405180910390f35b61014f6103fd565b005b34801561015d57600080fd5b5061016661051d565b60405161017391906108a4565b60405180910390f35b34801561018857600080fd5b506101a3600480360381019061019e91906106c3565b610523565b005b3480156101b157600080fd5b506101ba6105f4565b005b6000600360008360ff16815260200190815260200160002060009054906101000a900473ffffffffffffffffffffffffffffffffffffffff169050919050565b8067016345785d8a0000811115610248576040517f08c379a000000000000000000000000000000000000000000000000000000000815260040161023f90610884565b60405180910390fd5b3373ffffffffffffffffffffffffffffffffffffffff166108fc839081150290604051600060405180830381858888f1935050505015801561028e573d6000803e3d6000fd5b505050565b6060600060015467ffffffffffffffff8111156102d9577f4e487b7100000000000000000000000000000000000000000000000000000000600052604160045260246000fd5b6040519080825280602002602001820160405280156103075781602001602082028036833780820191505090505b50905060005b6001548110156103d1576003600082815260200190815260200160002060009054906101000a900473ffffffffffffffffffffffffffffffffffffffff16828281518110610384577f4e487b7100000000000000000000000000000000000000000000000000000000600052603260045260246000fd5b602002602001019073ffffffffffffffffffffffffffffffffffffffff16908173ffffffffffffffffffffffffffffffffffffffff168152505080806103c990610952565b91505061030d565b508091505090565b60008054906101000a900473ffffffffffffffffffffffffffffffffffffffff1681565b6000339050600260008273ffffffffffffffffffffffffffffffffffffffff1673ffffffffffffffffffffffffffffffffffffffff16815260200190815260200160002060009054906101000a900460ff1661051a5760006001600081548092919061046890610952565b9190505590506001600260008473ffffffffffffffffffffffffffffffffffffffff1673ffffffffffffffffffffffffffffffffffffffff16815260200190815260200160002060006101000a81548160ff021916908315150217905550816003600083815260200190815260200160002060006101000a81548173ffffffffffffffffffffffffffffffffffffffff021916908373ffffffffffffffffffffffffffffffffffffffff160217905550505b50565b60015481565b60008054906101000a900473ffffffffffffffffffffffffffffffffffffffff1673ffffffffffffffffffffffffffffffffffffffff163373ffffffffffffffffffffffffffffffffffffffff16146105b1576040517f08c379a00000000000000000000000000000000000000000000000000000000081526004016105a890610864565b60405180910390fd5b806000806101000a81548173ffffffffffffffffffffffffffffffffffffffff021916908373ffffffffffffffffffffffffffffffffffffffff16021790555050565b60008054906101000a900473ffffffffffffffffffffffffffffffffffffffff1673ffffffffffffffffffffffffffffffffffffffff163373ffffffffffffffffffffffffffffffffffffffff1614610682576040517f08c379a000000000000000000000000000000000000000000000000000000000815260040161067990610864565b60405180910390fd5b565b60008135905061069381610a68565b92915050565b6000813590506106a881610a7f565b92915050565b6000813590506106bd81610a96565b92915050565b6000602082840312156106d557600080fd5b60006106e384828501610684565b91505092915050565b6000602082840312156106fe57600080fd5b600061070c84828501610699565b91505092915050565b60006020828403121561072757600080fd5b6000610735848285016106ae565b91505092915050565b600061074a8383610756565b60208301905092915050565b61075f81610909565b82525050565b61076e81610909565b82525050565b600061077f826108cf565b61078981856108e7565b9350610794836108bf565b8060005b838110156107c55781516107ac888261073e565b97506107b7836108da565b925050600181019050610798565b5085935050505092915050565b60006107df6022836108f8565b91506107ea826109ca565b604082019050919050565b60006108026021836108f8565b915061080d82610a19565b604082019050919050565b6108218161093b565b82525050565b600060208201905061083c6000830184610765565b92915050565b6000602082019050818103600083015261085c8184610774565b905092915050565b6000602082019050818103600083015261087d816107d2565b9050919050565b6000602082019050818103600083015261089d816107f5565b9050919050565b60006020820190506108b96000830184610818565b92915050565b6000819050602082019050919050565b600081519050919050565b6000602082019050919050565b600082825260208201905092915050565b600082825260208201905092915050565b60006109148261091b565b9050919050565b600073ffffffffffffffffffffffffffffffffffffffff82169050919050565b6000819050919050565b600060ff82169050919050565b600061095d8261093b565b91507fffffffffffffffffffffffffffffffffffffffffffffffffffffffffffffffff8214156109905761098f61099b565b5b600182019050919050565b7f4e487b7100000000000000000000000000000000000000000000000000000000600052601160045260246000fd5b7f4f6e6c79206f776e65722063616e2063616c6c20746869732066756e6374696f60008201527f6e21000000000000000000000000000000000000000000000000000000000000602082015250565b7f43616e6e6f74207769746864726177206d6f7265207468616e20302e3120455460008201527f4800000000000000000000000000000000000000000000000000000000000000602082015250565b610a7181610909565b8114610a7c57600080fd5b50565b610a888161093b565b8114610a9357600080fd5b50565b610a9f81610945565b8114610aaa57600080fd5b5056fea264697066735822122043d4558ece5136c80a52a97cdbdd1d213af4d862c887d09df97c37f9992e4afd64736f6c63430008040033",
  "immutableReferences": {},
  "source": " // SPDX-License-Identifier: MIT\npragma solidity >=0.4.22 <0.9.0;\nimport \"./Owned.sol\";\n\n contract Faucet is Owned {\n     // storage variables\n    //  uint public funds = 1000;\n\n    // special function\n    // called when make tx that does not specify function\n    // external are parts of contract interface\n    // can be called by other contracts and transactions\n\n    // create address\n    // address[] public funders;\n    uint public numOfFunders;\n\n\n    mapping(address => bool) private funders;\n    mapping(uint => address) private lutFunders;\n\n\n    // payable can provide value\n\n   receive() external payable {}\n\n   function addFunds() external payable {\n     address funder = msg.sender;\n\n     if (!funders[funder]) {\n       uint index = numOfFunders++;\n       funders[funder] = true;\n       lutFunders[index] = funder;\n     }\n   }\n\n    modifier limitWithdraw(uint withdrawAmount){\n        require(withdrawAmount <= 100000000000000000, \"Cannot withdraw more than 0.1 ETH\");\n        _;\n    }\n   // withdraw fund from SC to account\n   function withdraw(uint withdrawAmount) external limitWithdraw(withdrawAmount){\n        // require(withdrawAmount <= 100000000000000000, \"Cannot withdraw more than 0.1 ETH\");\n    \n    payable(msg.sender).transfer(withdrawAmount);\n   }\n\n    // function getAllFunders() external view returns(address[] memory){\n    //     return funders;\n    // }\n\n     function getFunderAtIndex(uint8 index) external view returns(address) {\n     return lutFunders[index];\n   }\n\n    function getAllFunders() external view returns (address[] memory) {\n        address[] memory _funders = new address[](numOfFunders);\n\n        for (uint i = 0; i < numOfFunders; i++) {\n        _funders[i] = lutFunders[i];\n        }\n\n        return _funders;\n    }\n\n    function transferOwnership(address newOwner) external onlyOwner{\n        owner = newOwner;\n    }\n\n    function test() external onlyOwner {\n\n    }\n}\n\n // Nonce a hash when combined with minHash proofs that\n // block has gine through proof of work(POW)\n // 8 bytes 64 bits\n\n // const instance = await Faucet.deployed();\n // instance.addFunds({from: accounts[2], value: \"2000000000000000000\"})\n\n // instance.withdraw(\"500000000000000000\", {from: accounts[9]})",
  "sourcePath": "/Users/dyada/Desktop/blockchain/faucet/contracts/FaucetContract.sol",
  "compiler": {
    "name": "solc",
    "version": "0.8.4+commit.c7e474f2.Emscripten.clang"
  },
  "schemaVersion": "3.4.13",
  "updatedAt": "2023-05-17T23:42:43.573Z",
  "networkType": "ethereum",
  "devdoc": {
    "kind": "dev",
    "methods": {},
    "version": 1
  },
  "userdoc": {
    "kind": "user",
    "methods": {},
    "version": 1
  }
}